{
  "_format": "hh-sol-artifact-1",
  "contractName": "MyEpicNFT",
  "sourceName": "contracts/MyEpicNFT.sol",
  "abi": [
    {
      "inputs": [],
      "stateMutability": "nonpayable",
      "type": "constructor"
    },
    {
      "anonymous": false,
      "inputs": [
        {
          "indexed": true,
          "internalType": "address",
          "name": "owner",
          "type": "address"
        },
        {
          "indexed": true,
          "internalType": "address",
          "name": "approved",
          "type": "address"
        },
        {
          "indexed": true,
          "internalType": "uint256",
          "name": "tokenId",
          "type": "uint256"
        }
      ],
      "name": "Approval",
      "type": "event"
    },
    {
      "anonymous": false,
      "inputs": [
        {
          "indexed": true,
          "internalType": "address",
          "name": "owner",
          "type": "address"
        },
        {
          "indexed": true,
          "internalType": "address",
          "name": "operator",
          "type": "address"
        },
        {
          "indexed": false,
          "internalType": "bool",
          "name": "approved",
          "type": "bool"
        }
      ],
      "name": "ApprovalForAll",
      "type": "event"
    },
    {
      "anonymous": false,
      "inputs": [
        {
          "indexed": false,
          "internalType": "address",
          "name": "sender",
          "type": "address"
        },
        {
          "indexed": false,
          "internalType": "uint256",
          "name": "tokenId",
          "type": "uint256"
        }
      ],
      "name": "NewEpicNFTMinted",
      "type": "event"
    },
    {
      "anonymous": false,
      "inputs": [
        {
          "indexed": true,
          "internalType": "address",
          "name": "previousOwner",
          "type": "address"
        },
        {
          "indexed": true,
          "internalType": "address",
          "name": "newOwner",
          "type": "address"
        }
      ],
      "name": "OwnershipTransferred",
      "type": "event"
    },
    {
      "anonymous": false,
      "inputs": [
        {
          "indexed": true,
          "internalType": "address",
          "name": "from",
          "type": "address"
        },
        {
          "indexed": true,
          "internalType": "address",
          "name": "to",
          "type": "address"
        },
        {
          "indexed": true,
          "internalType": "uint256",
          "name": "tokenId",
          "type": "uint256"
        }
      ],
      "name": "Transfer",
      "type": "event"
    },
    {
      "inputs": [],
      "name": "MAX_SUPPLY",
      "outputs": [
        {
          "internalType": "uint256",
          "name": "",
          "type": "uint256"
        }
      ],
      "stateMutability": "view",
      "type": "function"
    },
    {
      "inputs": [
        {
          "internalType": "address",
          "name": "to",
          "type": "address"
        },
        {
          "internalType": "uint256",
          "name": "tokenId",
          "type": "uint256"
        }
      ],
      "name": "approve",
      "outputs": [],
      "stateMutability": "nonpayable",
      "type": "function"
    },
    {
      "inputs": [
        {
          "internalType": "address",
          "name": "owner",
          "type": "address"
        }
      ],
      "name": "balanceOf",
      "outputs": [
        {
          "internalType": "uint256",
          "name": "",
          "type": "uint256"
        }
      ],
      "stateMutability": "view",
      "type": "function"
    },
    {
      "inputs": [
        {
          "internalType": "uint256",
          "name": "tokenId",
          "type": "uint256"
        }
      ],
      "name": "getApproved",
      "outputs": [
        {
          "internalType": "address",
          "name": "",
          "type": "address"
        }
      ],
      "stateMutability": "view",
      "type": "function"
    },
    {
      "inputs": [
        {
          "internalType": "address",
          "name": "owner",
          "type": "address"
        },
        {
          "internalType": "address",
          "name": "operator",
          "type": "address"
        }
      ],
      "name": "isApprovedForAll",
      "outputs": [
        {
          "internalType": "bool",
          "name": "",
          "type": "bool"
        }
      ],
      "stateMutability": "view",
      "type": "function"
    },
    {
      "inputs": [],
      "name": "makeAnEpicNFT",
      "outputs": [],
      "stateMutability": "payable",
      "type": "function"
    },
    {
      "inputs": [],
      "name": "name",
      "outputs": [
        {
          "internalType": "string",
          "name": "",
          "type": "string"
        }
      ],
      "stateMutability": "view",
      "type": "function"
    },
    {
      "inputs": [],
      "name": "owner",
      "outputs": [
        {
          "internalType": "address",
          "name": "",
          "type": "address"
        }
      ],
      "stateMutability": "view",
      "type": "function"
    },
    {
      "inputs": [
        {
          "internalType": "uint256",
          "name": "tokenId",
          "type": "uint256"
        }
      ],
      "name": "ownerOf",
      "outputs": [
        {
          "internalType": "address",
          "name": "",
          "type": "address"
        }
      ],
      "stateMutability": "view",
      "type": "function"
    },
    {
      "inputs": [
        {
          "internalType": "uint256",
          "name": "tokenId",
          "type": "uint256"
        }
      ],
      "name": "pickRandomFirstPrice",
      "outputs": [
        {
          "internalType": "uint256",
          "name": "",
          "type": "uint256"
        }
      ],
      "stateMutability": "view",
      "type": "function"
    },
    {
      "inputs": [
        {
          "internalType": "uint256",
          "name": "tokenId",
          "type": "uint256"
        }
      ],
      "name": "pickRandomFirstWord",
      "outputs": [
        {
          "internalType": "string",
          "name": "",
          "type": "string"
        }
      ],
      "stateMutability": "view",
      "type": "function"
    },
    {
      "inputs": [
        {
          "internalType": "uint256",
          "name": "tokenId",
          "type": "uint256"
        }
      ],
      "name": "pickRandomSecondPrice",
      "outputs": [
        {
          "internalType": "uint256",
          "name": "",
          "type": "uint256"
        }
      ],
      "stateMutability": "view",
      "type": "function"
    },
    {
      "inputs": [
        {
          "internalType": "uint256",
          "name": "tokenId",
          "type": "uint256"
        }
      ],
      "name": "pickRandomSecondWord",
      "outputs": [
        {
          "internalType": "string",
          "name": "",
          "type": "string"
        }
      ],
      "stateMutability": "view",
      "type": "function"
    },
    {
      "inputs": [
        {
          "internalType": "uint256",
          "name": "tokenId",
          "type": "uint256"
        }
      ],
      "name": "pickRandomThirdWord",
      "outputs": [
        {
          "internalType": "string",
          "name": "",
          "type": "string"
        }
      ],
      "stateMutability": "view",
      "type": "function"
    },
    {
      "inputs": [],
      "name": "renounceOwnership",
      "outputs": [],
      "stateMutability": "nonpayable",
      "type": "function"
    },
    {
      "inputs": [
        {
          "internalType": "address",
          "name": "from",
          "type": "address"
        },
        {
          "internalType": "address",
          "name": "to",
          "type": "address"
        },
        {
          "internalType": "uint256",
          "name": "tokenId",
          "type": "uint256"
        }
      ],
      "name": "safeTransferFrom",
      "outputs": [],
      "stateMutability": "nonpayable",
      "type": "function"
    },
    {
      "inputs": [
        {
          "internalType": "address",
          "name": "from",
          "type": "address"
        },
        {
          "internalType": "address",
          "name": "to",
          "type": "address"
        },
        {
          "internalType": "uint256",
          "name": "tokenId",
          "type": "uint256"
        },
        {
          "internalType": "bytes",
          "name": "_data",
          "type": "bytes"
        }
      ],
      "name": "safeTransferFrom",
      "outputs": [],
      "stateMutability": "nonpayable",
      "type": "function"
    },
    {
      "inputs": [
        {
          "internalType": "address",
          "name": "operator",
          "type": "address"
        },
        {
          "internalType": "bool",
          "name": "approved",
          "type": "bool"
        }
      ],
      "name": "setApprovalForAll",
      "outputs": [],
      "stateMutability": "nonpayable",
      "type": "function"
    },
    {
      "inputs": [
        {
          "internalType": "bytes4",
          "name": "interfaceId",
          "type": "bytes4"
        }
      ],
      "name": "supportsInterface",
      "outputs": [
        {
          "internalType": "bool",
          "name": "",
          "type": "bool"
        }
      ],
      "stateMutability": "view",
      "type": "function"
    },
    {
      "inputs": [],
      "name": "symbol",
      "outputs": [
        {
          "internalType": "string",
          "name": "",
          "type": "string"
        }
      ],
      "stateMutability": "view",
      "type": "function"
    },
    {
      "inputs": [
        {
          "internalType": "uint256",
          "name": "tokenId",
          "type": "uint256"
        }
      ],
      "name": "tokenURI",
      "outputs": [
        {
          "internalType": "string",
          "name": "",
          "type": "string"
        }
      ],
      "stateMutability": "view",
      "type": "function"
    },
    {
      "inputs": [],
      "name": "totalSupply",
      "outputs": [
        {
          "internalType": "uint256",
          "name": "",
          "type": "uint256"
        }
      ],
      "stateMutability": "view",
      "type": "function"
    },
    {
      "inputs": [
        {
          "internalType": "address",
          "name": "from",
          "type": "address"
        },
        {
          "internalType": "address",
          "name": "to",
          "type": "address"
        },
        {
          "internalType": "uint256",
          "name": "tokenId",
          "type": "uint256"
        }
      ],
      "name": "transferFrom",
      "outputs": [],
      "stateMutability": "nonpayable",
      "type": "function"
    },
    {
      "inputs": [
        {
          "internalType": "address",
          "name": "newOwner",
          "type": "address"
        }
      ],
      "name": "transferOwnership",
      "outputs": [],
      "stateMutability": "nonpayable",
      "type": "function"
    },
    {
      "inputs": [],
      "name": "withdraw",
      "outputs": [],
      "stateMutability": "nonpayable",
      "type": "function"
    }
  ],
  "bytecode": "0x6080604052662386f26fc1000060085560405180610160016040528061013181526020016200516a6101319139600b9080519060200190620000439291906200083b565b506040518060c001604052806040518060400160405280600681526020017fe7899be4b8bc000000000000000000000000000000000000000000000000000081525081526020016040518060400160405280600681526020017fe8b19ae4b8bc000000000000000000000000000000000000000000000000000081525081526020016040518060400160405280600f81526020017fe7899be382abe383abe38393e4b8bc000000000000000000000000000000000081525081526020016040518060400160405280600c81526020017fe382abe383ace383bce7899b000000000000000000000000000000000000000081525081526020016040518060400160405280600f81526020017fe382b9e382bfe3839fe3838ae4b8bc000000000000000000000000000000000081525081526020016040518060400160405280600f81526020017fe7949fe5a79ce784bce3818de4b8bc0000000000000000000000000000000000815250815250600c906006620001c1929190620008cc565b506040518060c0016040528061017061ffff16815260200161015261ffff16815260200161021061ffff1681526020016101de61ffff16815260200161018e61ffff1681526020016101be61ffff16815250600d9060066200022592919062000933565b506040518060c001604052806040518060400160405280600981526020017fefbc88e4b8a6efbc89000000000000000000000000000000000000000000000081525081526020016040518060400160405280600f81526020017fefbc88e5a4a7e79b9be3828aefbc89000000000000000000000000000000000081525081526020016040518060400160405280601b81526020017fefbc88e382a2e382bfe3839ee381aee5a4a7e79b9be3828aefbc89000000000081525081526020016040518060400160405280600c81526020017fefbc88e789b9e79b9befbc89000000000000000000000000000000000000000081525081526020016040518060400160405280600f81526020017fefbc88e8b685e789b9e79b9befbc89000000000000000000000000000000000081525081526020016040518060400160405280601581526020017fefbc88e38194e9a3afe5b091e381aae38281efbc890000000000000000000000815250815250600e906006620003a3929190620008cc565b506040518060c00160405280601461ffff168152602001608261ffff16815260200160be61ffff16815260200161015461ffff1681526020016101c261ffff168152602001600061ffff16815250600f9060066200040392919062000933565b506040518060c001604052806040518060400160405280600c81526020017fe381a4e38286e381a0e3818f000000000000000000000000000000000000000081525081526020016040518060400160405280600c81526020017fe381a4e38286e68a9ce3818d000000000000000000000000000000000000000081525081526020016040518060400160405280600c81526020017fe381ade3818ee381a0e3818f000000000000000000000000000000000000000081525081526020016040518060400160405280600681526020017fe88289e4b88b000000000000000000000000000000000000000000000000000081525081526020016040518060400160405280600981526020017fe588a5e79b9be3828a000000000000000000000000000000000000000000000081525081526020016040518060400160405280600c81526020017fe381ade3818ee68a9ce3818d0000000000000000000000000000000000000000815250815250601090600662000581929190620008cc565b503480156200058f57600080fd5b506040518060400160405280600981526020017f477975646f6e4e465400000000000000000000000000000000000000000000008152506040518060400160405280600481526020017f42454546000000000000000000000000000000000000000000000000000000008152508160009080519060200190620006149291906200083b565b5080600190805190602001906200062d9291906200083b565b5050506200065062000644620006a160201b60201c565b620006a960201b60201c565b6200069b6040518060400160405280601881526020017f54686973206973206d79204e465420636f6e74726163742e00000000000000008152506200076f60201b620018c51760201c565b62000b45565b600033905090565b6000600760009054906101000a900473ffffffffffffffffffffffffffffffffffffffff16905081600760006101000a81548173ffffffffffffffffffffffffffffffffffffffff021916908373ffffffffffffffffffffffffffffffffffffffff1602179055508173ffffffffffffffffffffffffffffffffffffffff168173ffffffffffffffffffffffffffffffffffffffff167f8be0079c531659141344cd1fd0a4f28419497f9722a3daafe3b4186f6b6457e060405160405180910390a35050565b6200080f8160405160240162000786919062000a59565b6040516020818303038152906040527f41304fac000000000000000000000000000000000000000000000000000000007bffffffffffffffffffffffffffffffffffffffffffffffffffffffff19166020820180517bffffffffffffffffffffffffffffffffffffffffffffffffffffffff83818316178352505050506200081260201b60201c565b50565b60008151905060006a636f6e736f6c652e6c6f679050602083016000808483855afa5050505050565b828054620008499062000acf565b90600052602060002090601f0160209004810192826200086d5760008555620008b9565b82601f106200088857805160ff1916838001178555620008b9565b82800160010185558215620008b9579182015b82811115620008b85782518255916020019190600101906200089b565b5b509050620008c891906200098b565b5090565b82805482825590600052602060002090810192821562000920579160200282015b828111156200091f5782518290805190602001906200090e9291906200083b565b5091602001919060010190620008ed565b5b5090506200092f9190620009aa565b5090565b82805482825590600052602060002090810192821562000978579160200282015b8281111562000977578251829061ffff1690559160200191906001019062000954565b5b5090506200098791906200098b565b5090565b5b80821115620009a65760008160009055506001016200098c565b5090565b5b80821115620009ce5760008181620009c49190620009d2565b50600101620009ab565b5090565b508054620009e09062000acf565b6000825580601f10620009f4575062000a15565b601f01602090049060005260206000209081019062000a1491906200098b565b5b50565b600062000a258262000a7d565b62000a31818562000a88565b935062000a4381856020860162000a99565b62000a4e8162000b34565b840191505092915050565b6000602082019050818103600083015262000a75818462000a18565b905092915050565b600081519050919050565b600082825260208201905092915050565b60005b8381101562000ab957808201518184015260208101905062000a9c565b8381111562000ac9576000848401525b50505050565b6000600282049050600182168062000ae857607f821691505b6020821081141562000aff5762000afe62000b05565b5b50919050565b7f4e487b7100000000000000000000000000000000000000000000000000000000600052602260045260246000fd5b6000601f19601f8301169050919050565b6146158062000b556000396000f3fe6080604052600436106101665760003560e01c806370a08231116100d1578063b187301f1161008a578063c87b56dd11610064578063c87b56dd14610562578063de9d132f1461059f578063e985e9c5146105a9578063f2fde38b146105e657610166565b8063b187301f146104bf578063b88d4fde146104fc578063c575757a1461052557610166565b806370a08231146103af57806371431357146103ec578063715018a6146104295780638da5cb5b1461044057806395d89b411461046b578063a22cb4651461049657610166565b80632de38d68116101235780632de38d681461028d57806332cb6b0c146102ca5780633ccfd60b146102f557806342842e0e1461030c5780635c5c303e146103355780636352211e1461037257610166565b806301ffc9a71461016b57806306fdde03146101a8578063081812fc146101d3578063095ea7b31461021057806318160ddd1461023957806323b872dd14610264575b600080fd5b34801561017757600080fd5b50610192600480360381019061018d9190612e53565b61060f565b60405161019f919061363e565b60405180910390f35b3480156101b457600080fd5b506101bd6106f1565b6040516101ca9190613659565b60405180910390f35b3480156101df57600080fd5b506101fa60048036038101906101f59190612ea5565b610783565b60405161020791906135ae565b60405180910390f35b34801561021c57600080fd5b5061023760048036038101906102329190612e17565b610808565b005b34801561024557600080fd5b5061024e610920565b60405161025b9190613969565b60405180910390f35b34801561027057600080fd5b5061028b60048036038101906102869190612d11565b610931565b005b34801561029957600080fd5b506102b460048036038101906102af9190612ea5565b610991565b6040516102c19190613659565b60405180910390f35b3480156102d657600080fd5b506102df610b2d565b6040516102ec9190613969565b60405180910390f35b34801561030157600080fd5b5061030a610b33565b005b34801561031857600080fd5b50610333600480360381019061032e9190612d11565b610bfe565b005b34801561034157600080fd5b5061035c60048036038101906103579190612ea5565b610c1e565b6040516103699190613969565b60405180910390f35b34801561037e57600080fd5b5061039960048036038101906103949190612ea5565b610cb3565b6040516103a691906135ae565b60405180910390f35b3480156103bb57600080fd5b506103d660048036038101906103d19190612cac565b610d65565b6040516103e39190613969565b60405180910390f35b3480156103f857600080fd5b50610413600480360381019061040e9190612ea5565b610e1d565b6040516104209190613969565b60405180910390f35b34801561043557600080fd5b5061043e610eb2565b005b34801561044c57600080fd5b50610455610f3a565b60405161046291906135ae565b60405180910390f35b34801561047757600080fd5b50610480610f64565b60405161048d9190613659565b60405180910390f35b3480156104a257600080fd5b506104bd60048036038101906104b89190612ddb565b610ff6565b005b3480156104cb57600080fd5b506104e660048036038101906104e19190612ea5565b61100c565b6040516104f39190613659565b60405180910390f35b34801561050857600080fd5b50610523600480360381019061051e9190612d60565b61112a565b005b34801561053157600080fd5b5061054c60048036038101906105479190612ea5565b61118c565b6040516105599190613659565b60405180910390f35b34801561056e57600080fd5b5061058960048036038101906105849190612ea5565b6112aa565b6040516105969190613659565b60405180910390f35b6105a76113fc565b005b3480156105b557600080fd5b506105d060048036038101906105cb9190612cd5565b611739565b6040516105dd919061363e565b60405180910390f35b3480156105f257600080fd5b5061060d60048036038101906106089190612cac565b6117cd565b005b60007f80ac58cd000000000000000000000000000000000000000000000000000000007bffffffffffffffffffffffffffffffffffffffffffffffffffffffff1916827bffffffffffffffffffffffffffffffffffffffffffffffffffffffff191614806106da57507f5b5e139f000000000000000000000000000000000000000000000000000000007bffffffffffffffffffffffffffffffffffffffffffffffffffffffff1916827bffffffffffffffffffffffffffffffffffffffffffffffffffffffff1916145b806106ea57506106e98261195e565b5b9050919050565b60606000805461070090613bfd565b80601f016020809104026020016040519081016040528092919081815260200182805461072c90613bfd565b80156107795780601f1061074e57610100808354040283529160200191610779565b820191906000526020600020905b81548152906001019060200180831161075c57829003601f168201915b5050505050905090565b600061078e826119c8565b6107cd576040517f08c379a00000000000000000000000000000000000000000000000000000000081526004016107c4906138a9565b60405180910390fd5b6004600083815260200190815260200160002060009054906101000a900473ffffffffffffffffffffffffffffffffffffffff169050919050565b600061081382610cb3565b90508073ffffffffffffffffffffffffffffffffffffffff168373ffffffffffffffffffffffffffffffffffffffff161415610884576040517f08c379a000000000000000000000000000000000000000000000000000000000815260040161087b90613909565b60405180910390fd5b8073ffffffffffffffffffffffffffffffffffffffff166108a3611a34565b73ffffffffffffffffffffffffffffffffffffffff1614806108d257506108d1816108cc611a34565b611739565b5b610911576040517f08c379a0000000000000000000000000000000000000000000000000000000008152600401610908906137c9565b60405180910390fd5b61091b8383611a3c565b505050565b600061092c600a611af5565b905090565b61094261093c611a34565b82611b03565b610981576040517f08c379a000000000000000000000000000000000000000000000000000000000815260040161097890613929565b60405180910390fd5b61098c838383611be1565b505050565b606060006109c56109a184611e48565b6040516020016109b1919061356a565b604051602081830303815290604052611ff5565b9050610a066040518060400160405280600d81526020017f72616e64202d20736565643a200000000000000000000000000000000000000081525082612028565b600c8054905081610a179190613ca9565b9050610a586040518060400160405280601381526020017f72616e64202d20666972737420776f72643a200000000000000000000000000081525082612028565b600c8181548110610a92577f4e487b7100000000000000000000000000000000000000000000000000000000600052603260045260246000fd5b906000526020600020018054610aa790613bfd565b80601f0160208091040260200160405190810160405280929190818152602001828054610ad390613bfd565b8015610b205780601f10610af557610100808354040283529160200191610b20565b820191906000526020600020905b815481529060010190602001808311610b0357829003601f168201915b5050505050915050919050565b6103e881565b610b3b611a34565b73ffffffffffffffffffffffffffffffffffffffff16610b59610f3a565b73ffffffffffffffffffffffffffffffffffffffff1614610baf576040517f08c379a0000000000000000000000000000000000000000000000000000000008152600401610ba6906138c9565b60405180910390fd5b60004790503373ffffffffffffffffffffffffffffffffffffffff166108fc829081150290604051600060405180830381858888f19350505050158015610bfa573d6000803e3d6000fd5b5050565b610c198383836040518060200160405280600081525061112a565b505050565b600080610c51610c2d84611e48565b604051602001610c3d9190613503565b604051602081830303815290604052611ff5565b9050600f8054905081610c649190613ca9565b9050600f8181548110610ca0577f4e487b7100000000000000000000000000000000000000000000000000000000600052603260045260246000fd5b9060005260206000200154915050919050565b6000806002600084815260200190815260200160002060009054906101000a900473ffffffffffffffffffffffffffffffffffffffff169050600073ffffffffffffffffffffffffffffffffffffffff168173ffffffffffffffffffffffffffffffffffffffff161415610d5c576040517f08c379a0000000000000000000000000000000000000000000000000000000008152600401610d5390613809565b60405180910390fd5b80915050919050565b60008073ffffffffffffffffffffffffffffffffffffffff168273ffffffffffffffffffffffffffffffffffffffff161415610dd6576040517f08c379a0000000000000000000000000000000000000000000000000000000008152600401610dcd906137e9565b60405180910390fd5b600360008373ffffffffffffffffffffffffffffffffffffffff1673ffffffffffffffffffffffffffffffffffffffff168152602001908152602001600020549050919050565b600080610e50610e2c84611e48565b604051602001610e3c919061356a565b604051602081830303815290604052611ff5565b9050600d8054905081610e639190613ca9565b9050600d8181548110610e9f577f4e487b7100000000000000000000000000000000000000000000000000000000600052603260045260246000fd5b9060005260206000200154915050919050565b610eba611a34565b73ffffffffffffffffffffffffffffffffffffffff16610ed8610f3a565b73ffffffffffffffffffffffffffffffffffffffff1614610f2e576040517f08c379a0000000000000000000000000000000000000000000000000000000008152600401610f25906138c9565b60405180910390fd5b610f3860006120c4565b565b6000600760009054906101000a900473ffffffffffffffffffffffffffffffffffffffff16905090565b606060018054610f7390613bfd565b80601f0160208091040260200160405190810160405280929190818152602001828054610f9f90613bfd565b8015610fec5780601f10610fc157610100808354040283529160200191610fec565b820191906000526020600020905b815481529060010190602001808311610fcf57829003601f168201915b5050505050905090565b611008611001611a34565b838361218a565b5050565b6060600061104061101c84611e48565b60405160200161102c9190613503565b604051602081830303815290604052611ff5565b9050600e80549050816110539190613ca9565b9050600e818154811061108f577f4e487b7100000000000000000000000000000000000000000000000000000000600052603260045260246000fd5b9060005260206000200180546110a490613bfd565b80601f01602080910402602001604051908101604052809291908181526020018280546110d090613bfd565b801561111d5780601f106110f25761010080835404028352916020019161111d565b820191906000526020600020905b81548152906001019060200180831161110057829003601f168201915b5050505050915050919050565b61113b611135611a34565b83611b03565b61117a576040517f08c379a000000000000000000000000000000000000000000000000000000000815260040161117190613929565b60405180910390fd5b611186848484846122f7565b50505050565b606060006111c061119c84611e48565b6040516020016111ac91906134e1565b604051602081830303815290604052611ff5565b9050601080549050816111d39190613ca9565b90506010818154811061120f577f4e487b7100000000000000000000000000000000000000000000000000000000600052603260045260246000fd5b90600052602060002001805461122490613bfd565b80601f016020809104026020016040519081016040528092919081815260200182805461125090613bfd565b801561129d5780601f106112725761010080835404028352916020019161129d565b820191906000526020600020905b81548152906001019060200180831161128057829003601f168201915b5050505050915050919050565b60606112b5826119c8565b6112f4576040517f08c379a00000000000000000000000000000000000000000000000000000000081526004016112eb90613889565b60405180910390fd5b600060066000848152602001908152602001600020805461131490613bfd565b80601f016020809104026020016040519081016040528092919081815260200182805461134090613bfd565b801561138d5780601f106113625761010080835404028352916020019161138d565b820191906000526020600020905b81548152906001019060200180831161137057829003601f168201915b50505050509050600061139e612353565b90506000815114156113b45781925050506113f7565b6000825111156113e95780826040516020016113d192919061342b565b604051602081830303815290604052925050506113f7565b6113f28461236a565b925050505b919050565b6103e8611407610920565b10611447576040517f08c379a000000000000000000000000000000000000000000000000000000000815260040161143e90613849565b60405180910390fd5b600854341461148b576040517f08c379a000000000000000000000000000000000000000000000000000000000815260040161148290613949565b60405180910390fd5b60006114976009611af5565b905060006114a482610991565b905060006114b18361100c565b905060006114be8461118c565b905060008383836040516020016114d79392919061344f565b6040516020818303038152906040529050600061150e6114f687610c1e565b6114ff88610e1d565b6115099190613a32565b611e48565b9050611519816118c5565b6000600b86868685604051602001611535959493929190613480565b60405160208183030381529060405290506115846040518060400160405280601581526020017f0a2d2d2d2d2d205356472064617461202d2d2d2d2d00000000000000000000008152506118c5565b61158d816118c5565b6115cb6040518060400160405280601581526020017f2d2d2d2d2d2d2d2d2d2d2d2d2d2d2d2d2d2d2d2d0a00000000000000000000008152506118c5565b60006115ff846115da84612411565b6040516020016115eb929190613525565b604051602081830303815290604052612411565b9050600081604051602001611614919061358c565b60405160208183030381529060405290506116636040518060400160405280601581526020017f0a2d2d2d2d2d20546f6b656e20555249202d2d2d2d00000000000000000000008152506118c5565b61166c816118c5565b6116aa6040518060400160405280601581526020017f2d2d2d2d2d2d2d2d2d2d2d2d2d2d2d2d2d2d2d2d0a00000000000000000000008152506118c5565b6116b4338a6125cf565b6116be89826125ed565b6116e160405180606001604052806025815260200161457b602591398a33612661565b6116eb6009612700565b6116f5600a612700565b7febb98688741ffa4c7589bf325de30cf7becb63de567842e1ccdb6cb949fdc82c338a604051611726929190613615565b60405180910390a1505050505050505050565b6000600560008473ffffffffffffffffffffffffffffffffffffffff1673ffffffffffffffffffffffffffffffffffffffff16815260200190815260200160002060008373ffffffffffffffffffffffffffffffffffffffff1673ffffffffffffffffffffffffffffffffffffffff16815260200190815260200160002060009054906101000a900460ff16905092915050565b6117d5611a34565b73ffffffffffffffffffffffffffffffffffffffff166117f3610f3a565b73ffffffffffffffffffffffffffffffffffffffff1614611849576040517f08c379a0000000000000000000000000000000000000000000000000000000008152600401611840906138c9565b60405180910390fd5b600073ffffffffffffffffffffffffffffffffffffffff168173ffffffffffffffffffffffffffffffffffffffff1614156118b9576040517f08c379a00000000000000000000000000000000000000000000000000000000081526004016118b090613709565b60405180910390fd5b6118c2816120c4565b50565b61195b816040516024016118d99190613659565b6040516020818303038152906040527f41304fac000000000000000000000000000000000000000000000000000000007bffffffffffffffffffffffffffffffffffffffffffffffffffffffff19166020820180517bffffffffffffffffffffffffffffffffffffffffffffffffffffffff8381831617835250505050612716565b50565b60007f01ffc9a7000000000000000000000000000000000000000000000000000000007bffffffffffffffffffffffffffffffffffffffffffffffffffffffff1916827bffffffffffffffffffffffffffffffffffffffffffffffffffffffff1916149050919050565b60008073ffffffffffffffffffffffffffffffffffffffff166002600084815260200190815260200160002060009054906101000a900473ffffffffffffffffffffffffffffffffffffffff1673ffffffffffffffffffffffffffffffffffffffff1614159050919050565b600033905090565b816004600083815260200190815260200160002060006101000a81548173ffffffffffffffffffffffffffffffffffffffff021916908373ffffffffffffffffffffffffffffffffffffffff160217905550808273ffffffffffffffffffffffffffffffffffffffff16611aaf83610cb3565b73ffffffffffffffffffffffffffffffffffffffff167f8c5be1e5ebec7d5bd14f71427d1e84f3dd0314c0f7b2291e5b200ac8c7c3b92560405160405180910390a45050565b600081600001549050919050565b6000611b0e826119c8565b611b4d576040517f08c379a0000000000000000000000000000000000000000000000000000000008152600401611b44906137a9565b60405180910390fd5b6000611b5883610cb3565b90508073ffffffffffffffffffffffffffffffffffffffff168473ffffffffffffffffffffffffffffffffffffffff161480611bc757508373ffffffffffffffffffffffffffffffffffffffff16611baf84610783565b73ffffffffffffffffffffffffffffffffffffffff16145b80611bd85750611bd78185611739565b5b91505092915050565b8273ffffffffffffffffffffffffffffffffffffffff16611c0182610cb3565b73ffffffffffffffffffffffffffffffffffffffff1614611c57576040517f08c379a0000000000000000000000000000000000000000000000000000000008152600401611c4e90613729565b60405180910390fd5b600073ffffffffffffffffffffffffffffffffffffffff168273ffffffffffffffffffffffffffffffffffffffff161415611cc7576040517f08c379a0000000000000000000000000000000000000000000000000000000008152600401611cbe90613769565b60405180910390fd5b611cd283838361273f565b611cdd600082611a3c565b6001600360008573ffffffffffffffffffffffffffffffffffffffff1673ffffffffffffffffffffffffffffffffffffffff1681526020019081526020016000206000828254611d2d9190613b13565b925050819055506001600360008473ffffffffffffffffffffffffffffffffffffffff1673ffffffffffffffffffffffffffffffffffffffff1681526020019081526020016000206000828254611d849190613a32565b92505081905550816002600083815260200190815260200160002060006101000a81548173ffffffffffffffffffffffffffffffffffffffff021916908373ffffffffffffffffffffffffffffffffffffffff160217905550808273ffffffffffffffffffffffffffffffffffffffff168473ffffffffffffffffffffffffffffffffffffffff167fddf252ad1be2c89b69c2b068fc378daa952ba7f163c4a11628f55a4df523b3ef60405160405180910390a4611e43838383612744565b505050565b60606000821415611e90576040518060400160405280600181526020017f30000000000000000000000000000000000000000000000000000000000000008152509050611ff0565b600082905060005b60008214611ec2578080611eab90613c60565b915050600a82611ebb9190613a88565b9150611e98565b60008167ffffffffffffffff811115611f04577f4e487b7100000000000000000000000000000000000000000000000000000000600052604160045260246000fd5b6040519080825280601f01601f191660200182016040528015611f365781602001600182028036833780820191505090505b5090505b60008514611fe957600182611f4f9190613b13565b9150600a85611f5e9190613ca9565b6030611f6a9190613a32565b60f81b818381518110611fa6577f4e487b7100000000000000000000000000000000000000000000000000000000600052603260045260246000fd5b60200101907effffffffffffffffffffffffffffffffffffffffffffffffffffffffffffff1916908160001a905350600a85611fe29190613a88565b9450611f3a565b8093505050505b919050565b6000816040516020016120089190613414565b6040516020818303038152906040528051906020012060001c9050919050565b6120c0828260405160240161203e92919061367b565b6040516020818303038152906040527f9710a9d0000000000000000000000000000000000000000000000000000000007bffffffffffffffffffffffffffffffffffffffffffffffffffffffff19166020820180517bffffffffffffffffffffffffffffffffffffffffffffffffffffffff8381831617835250505050612716565b5050565b6000600760009054906101000a900473ffffffffffffffffffffffffffffffffffffffff16905081600760006101000a81548173ffffffffffffffffffffffffffffffffffffffff021916908373ffffffffffffffffffffffffffffffffffffffff1602179055508173ffffffffffffffffffffffffffffffffffffffff168173ffffffffffffffffffffffffffffffffffffffff167f8be0079c531659141344cd1fd0a4f28419497f9722a3daafe3b4186f6b6457e060405160405180910390a35050565b8173ffffffffffffffffffffffffffffffffffffffff168373ffffffffffffffffffffffffffffffffffffffff1614156121f9576040517f08c379a00000000000000000000000000000000000000000000000000000000081526004016121f090613789565b60405180910390fd5b80600560008573ffffffffffffffffffffffffffffffffffffffff1673ffffffffffffffffffffffffffffffffffffffff16815260200190815260200160002060008473ffffffffffffffffffffffffffffffffffffffff1673ffffffffffffffffffffffffffffffffffffffff16815260200190815260200160002060006101000a81548160ff0219169083151502179055508173ffffffffffffffffffffffffffffffffffffffff168373ffffffffffffffffffffffffffffffffffffffff167f17307eab39ab6107e8899845ad3d59bd9653f200f220920489ca2b5937696c31836040516122ea919061363e565b60405180910390a3505050565b612302848484611be1565b61230e84848484612749565b61234d576040517f08c379a0000000000000000000000000000000000000000000000000000000008152600401612344906136e9565b60405180910390fd5b50505050565b606060405180602001604052806000815250905090565b6060612375826119c8565b6123b4576040517f08c379a00000000000000000000000000000000000000000000000000000000081526004016123ab906138e9565b60405180910390fd5b60006123be612353565b905060008151116123de5760405180602001604052806000815250612409565b806123e884611e48565b6040516020016123f992919061342b565b6040516020818303038152906040525b915050919050565b6060600082519050600081141561243a57604051806020016040528060008152509150506125ca565b6000600360028361244b9190613a32565b6124559190613a88565b60046124619190613ab9565b905060006020826124729190613a32565b67ffffffffffffffff8111156124b1577f4e487b7100000000000000000000000000000000000000000000000000000000600052604160045260246000fd5b6040519080825280601f01601f1916602001820160405280156124e35781602001600182028036833780820191505090505b50905060006040518060600160405280604081526020016145a0604091399050600181016020830160005b868110156125875760038101905062ffffff818a015116603f8160121c168401518060081b905060ff603f83600c1c1686015116810190508060081b905060ff603f8360061c1686015116810190508060081b905060ff603f831686015116810190508060e01b9050808452600484019350505061250e565b5060038606600181146125a157600281146125b1576125bc565b613d3d60f01b60028303526125bc565b603d60f81b60018303525b508484525050819450505050505b919050565b6125e98282604051806020016040528060008152506128e0565b5050565b6125f6826119c8565b612635576040517f08c379a000000000000000000000000000000000000000000000000000000000815260040161262c90613829565b60405180910390fd5b8060066000848152602001908152602001600020908051906020019061265c929190612b38565b505050565b6126fb838383604051602401612679939291906136ab565b6040516020818303038152906040527fe3849f79000000000000000000000000000000000000000000000000000000007bffffffffffffffffffffffffffffffffffffffffffffffffffffffff19166020820180517bffffffffffffffffffffffffffffffffffffffffffffffffffffffff8381831617835250505050612716565b505050565b6001816000016000828254019250508190555050565b60008151905060006a636f6e736f6c652e6c6f679050602083016000808483855afa5050505050565b505050565b505050565b600061276a8473ffffffffffffffffffffffffffffffffffffffff1661293b565b156128d3578373ffffffffffffffffffffffffffffffffffffffff1663150b7a02612793611a34565b8786866040518563ffffffff1660e01b81526004016127b594939291906135c9565b602060405180830381600087803b1580156127cf57600080fd5b505af192505050801561280057506040513d601f19601f820116820180604052508101906127fd9190612e7c565b60015b612883573d8060008114612830576040519150601f19603f3d011682016040523d82523d6000602084013e612835565b606091505b5060008151141561287b576040517f08c379a0000000000000000000000000000000000000000000000000000000008152600401612872906136e9565b60405180910390fd5b805181602001fd5b63150b7a0260e01b7bffffffffffffffffffffffffffffffffffffffffffffffffffffffff1916817bffffffffffffffffffffffffffffffffffffffffffffffffffffffff1916149150506128d8565b600190505b949350505050565b6128ea838361295e565b6128f76000848484612749565b612936576040517f08c379a000000000000000000000000000000000000000000000000000000000815260040161292d906136e9565b60405180910390fd5b505050565b6000808273ffffffffffffffffffffffffffffffffffffffff163b119050919050565b600073ffffffffffffffffffffffffffffffffffffffff168273ffffffffffffffffffffffffffffffffffffffff1614156129ce576040517f08c379a00000000000000000000000000000000000000000000000000000000081526004016129c590613869565b60405180910390fd5b6129d7816119c8565b15612a17576040517f08c379a0000000000000000000000000000000000000000000000000000000008152600401612a0e90613749565b60405180910390fd5b612a236000838361273f565b6001600360008473ffffffffffffffffffffffffffffffffffffffff1673ffffffffffffffffffffffffffffffffffffffff1681526020019081526020016000206000828254612a739190613a32565b92505081905550816002600083815260200190815260200160002060006101000a81548173ffffffffffffffffffffffffffffffffffffffff021916908373ffffffffffffffffffffffffffffffffffffffff160217905550808273ffffffffffffffffffffffffffffffffffffffff16600073ffffffffffffffffffffffffffffffffffffffff167fddf252ad1be2c89b69c2b068fc378daa952ba7f163c4a11628f55a4df523b3ef60405160405180910390a4612b3460008383612744565b5050565b828054612b4490613bfd565b90600052602060002090601f016020900481019282612b665760008555612bad565b82601f10612b7f57805160ff1916838001178555612bad565b82800160010185558215612bad579182015b82811115612bac578251825591602001919060010190612b91565b5b509050612bba9190612bbe565b5090565b5b80821115612bd7576000816000905550600101612bbf565b5090565b6000612bee612be9846139a9565b613984565b905082815260208101848484011115612c0657600080fd5b612c11848285613bbb565b509392505050565b600081359050612c288161451e565b92915050565b600081359050612c3d81614535565b92915050565b600081359050612c528161454c565b92915050565b600081519050612c678161454c565b92915050565b600082601f830112612c7e57600080fd5b8135612c8e848260208601612bdb565b91505092915050565b600081359050612ca681614563565b92915050565b600060208284031215612cbe57600080fd5b6000612ccc84828501612c19565b91505092915050565b60008060408385031215612ce857600080fd5b6000612cf685828601612c19565b9250506020612d0785828601612c19565b9150509250929050565b600080600060608486031215612d2657600080fd5b6000612d3486828701612c19565b9350506020612d4586828701612c19565b9250506040612d5686828701612c97565b9150509250925092565b60008060008060808587031215612d7657600080fd5b6000612d8487828801612c19565b9450506020612d9587828801612c19565b9350506040612da687828801612c97565b925050606085013567ffffffffffffffff811115612dc357600080fd5b612dcf87828801612c6d565b91505092959194509250565b60008060408385031215612dee57600080fd5b6000612dfc85828601612c19565b9250506020612e0d85828601612c2e565b9150509250929050565b60008060408385031215612e2a57600080fd5b6000612e3885828601612c19565b9250506020612e4985828601612c97565b9150509250929050565b600060208284031215612e6557600080fd5b6000612e7384828501612c43565b91505092915050565b600060208284031215612e8e57600080fd5b6000612e9c84828501612c58565b91505092915050565b600060208284031215612eb757600080fd5b6000612ec584828501612c97565b91505092915050565b612ed781613b47565b82525050565b612ee681613b59565b82525050565b6000612ef7826139ef565b612f018185613a05565b9350612f11818560208601613bca565b612f1a81613d96565b840191505092915050565b6000612f30826139fa565b612f3a8185613a16565b9350612f4a818560208601613bca565b612f5381613d96565b840191505092915050565b6000612f69826139fa565b612f738185613a27565b9350612f83818560208601613bca565b80840191505092915050565b60008154612f9c81613bfd565b612fa68186613a27565b94506001821660008114612fc15760018114612fd257613005565b60ff19831686528186019350613005565b612fdb856139da565b60005b83811015612ffd57815481890152600182019150602081019050612fde565b838801955050505b50505092915050565b600061301b603283613a16565b915061302682613da7565b604082019050919050565b600061303e602683613a16565b915061304982613df6565b604082019050919050565b6000613061602583613a16565b915061306c82613e45565b604082019050919050565b6000613084601c83613a16565b915061308f82613e94565b602082019050919050565b60006130a7600a83613a27565b91506130b282613ebd565b600a82019050919050565b60006130ca602483613a16565b91506130d582613ee6565b604082019050919050565b60006130ed601983613a16565b91506130f882613f35565b602082019050919050565b6000613110606383613a27565b915061311b82613f5e565b606382019050919050565b6000613133600b83613a27565b915061313e82613ff9565b600b82019050919050565b6000613156602c83613a16565b915061316182614022565b604082019050919050565b6000613179603883613a16565b915061318482614071565b604082019050919050565b600061319c602a83613a16565b91506131a7826140c0565b604082019050919050565b60006131bf602983613a16565b91506131ca8261410f565b604082019050919050565b60006131e2602e83613a16565b91506131ed8261415e565b604082019050919050565b6000613205601283613a16565b9150613210826141ad565b602082019050919050565b6000613228600283613a27565b9150613233826141d6565b600282019050919050565b600061324b602083613a16565b9150613256826141ff565b602082019050919050565b600061326e603183613a16565b915061327982614228565b604082019050919050565b6000613291602c83613a16565b915061329c82614277565b604082019050919050565b60006132b4602083613a16565b91506132bf826142c6565b602082019050919050565b60006132d7602f83613a16565b91506132e2826142ef565b604082019050919050565b60006132fa600a83613a27565b91506133058261433e565b600a82019050919050565b600061331d602183613a16565b915061332882614367565b604082019050919050565b6000613340600a83613a27565b915061334b826143b6565b600a82019050919050565b6000613363601d83613a27565b915061336e826143df565b601d82019050919050565b6000613386603183613a16565b915061339182614408565b604082019050919050565b60006133a9605a83613a27565b91506133b482614457565b605a82019050919050565b60006133cc601083613a27565b91506133d7826144cc565b601082019050919050565b60006133ef601983613a16565b91506133fa826144f5565b602082019050919050565b61340e81613bb1565b82525050565b60006134208284612f5e565b915081905092915050565b60006134378285612f5e565b91506134438284612f5e565b91508190509392505050565b600061345b8286612f5e565b91506134678285612f5e565b91506134738284612f5e565b9150819050949350505050565b600061348c8288612f8f565b91506134988287612f5e565b91506134a48286612f5e565b91506134b08285612f5e565b91506134bb8261339c565b91506134c78284612f5e565b91506134d2826133bf565b91508190509695505050505050565b60006134ec8261309a565b91506134f88284612f5e565b915081905092915050565b600061350e82613126565b915061351a8284612f5e565b915081905092915050565b6000613530826132ed565b915061353c8285612f5e565b915061354782613103565b91506135538284612f5e565b915061355e8261321b565b91508190509392505050565b600061357582613333565b91506135818284612f5e565b915081905092915050565b600061359782613356565b91506135a38284612f5e565b915081905092915050565b60006020820190506135c36000830184612ece565b92915050565b60006080820190506135de6000830187612ece565b6135eb6020830186612ece565b6135f86040830185613405565b818103606083015261360a8184612eec565b905095945050505050565b600060408201905061362a6000830185612ece565b6136376020830184613405565b9392505050565b60006020820190506136536000830184612edd565b92915050565b600060208201905081810360008301526136738184612f25565b905092915050565b600060408201905081810360008301526136958185612f25565b90506136a46020830184613405565b9392505050565b600060608201905081810360008301526136c58186612f25565b90506136d46020830185613405565b6136e16040830184612ece565b949350505050565b600060208201905081810360008301526137028161300e565b9050919050565b6000602082019050818103600083015261372281613031565b9050919050565b6000602082019050818103600083015261374281613054565b9050919050565b6000602082019050818103600083015261376281613077565b9050919050565b60006020820190508181036000830152613782816130bd565b9050919050565b600060208201905081810360008301526137a2816130e0565b9050919050565b600060208201905081810360008301526137c281613149565b9050919050565b600060208201905081810360008301526137e28161316c565b9050919050565b600060208201905081810360008301526138028161318f565b9050919050565b60006020820190508181036000830152613822816131b2565b9050919050565b60006020820190508181036000830152613842816131d5565b9050919050565b60006020820190508181036000830152613862816131f8565b9050919050565b600060208201905081810360008301526138828161323e565b9050919050565b600060208201905081810360008301526138a281613261565b9050919050565b600060208201905081810360008301526138c281613284565b9050919050565b600060208201905081810360008301526138e2816132a7565b9050919050565b60006020820190508181036000830152613902816132ca565b9050919050565b6000602082019050818103600083015261392281613310565b9050919050565b6000602082019050818103600083015261394281613379565b9050919050565b60006020820190508181036000830152613962816133e2565b9050919050565b600060208201905061397e6000830184613405565b92915050565b600061398e61399f565b905061399a8282613c2f565b919050565b6000604051905090565b600067ffffffffffffffff8211156139c4576139c3613d67565b5b6139cd82613d96565b9050602081019050919050565b60008190508160005260206000209050919050565b600081519050919050565b600081519050919050565b600082825260208201905092915050565b600082825260208201905092915050565b600081905092915050565b6000613a3d82613bb1565b9150613a4883613bb1565b9250827fffffffffffffffffffffffffffffffffffffffffffffffffffffffffffffffff03821115613a7d57613a7c613cda565b5b828201905092915050565b6000613a9382613bb1565b9150613a9e83613bb1565b925082613aae57613aad613d09565b5b828204905092915050565b6000613ac482613bb1565b9150613acf83613bb1565b9250817fffffffffffffffffffffffffffffffffffffffffffffffffffffffffffffffff0483118215151615613b0857613b07613cda565b5b828202905092915050565b6000613b1e82613bb1565b9150613b2983613bb1565b925082821015613b3c57613b3b613cda565b5b828203905092915050565b6000613b5282613b91565b9050919050565b60008115159050919050565b60007fffffffff0000000000000000000000000000000000000000000000000000000082169050919050565b600073ffffffffffffffffffffffffffffffffffffffff82169050919050565b6000819050919050565b82818337600083830152505050565b60005b83811015613be8578082015181840152602081019050613bcd565b83811115613bf7576000848401525b50505050565b60006002820490506001821680613c1557607f821691505b60208210811415613c2957613c28613d38565b5b50919050565b613c3882613d96565b810181811067ffffffffffffffff82111715613c5757613c56613d67565b5b80604052505050565b6000613c6b82613bb1565b91507fffffffffffffffffffffffffffffffffffffffffffffffffffffffffffffffff821415613c9e57613c9d613cda565b5b600182019050919050565b6000613cb482613bb1565b9150613cbf83613bb1565b925082613ccf57613cce613d09565b5b828206905092915050565b7f4e487b7100000000000000000000000000000000000000000000000000000000600052601160045260246000fd5b7f4e487b7100000000000000000000000000000000000000000000000000000000600052601260045260246000fd5b7f4e487b7100000000000000000000000000000000000000000000000000000000600052602260045260246000fd5b7f4e487b7100000000000000000000000000000000000000000000000000000000600052604160045260246000fd5b6000601f19601f8301169050919050565b7f4552433732313a207472616e7366657220746f206e6f6e20455243373231526560008201527f63656976657220696d706c656d656e7465720000000000000000000000000000602082015250565b7f4f776e61626c653a206e6577206f776e657220697320746865207a65726f206160008201527f6464726573730000000000000000000000000000000000000000000000000000602082015250565b7f4552433732313a207472616e736665722066726f6d20696e636f72726563742060008201527f6f776e6572000000000000000000000000000000000000000000000000000000602082015250565b7f4552433732313a20746f6b656e20616c7265616479206d696e74656400000000600082015250565b7f54484952445f574f524400000000000000000000000000000000000000000000600082015250565b7f4552433732313a207472616e7366657220746f20746865207a65726f2061646460008201527f7265737300000000000000000000000000000000000000000000000000000000602082015250565b7f4552433732313a20617070726f766520746f2063616c6c657200000000000000600082015250565b7f222c20226465736372697074696f6e223a20224120686967686c79206163636c60008201527f61696d656420636f6c6c656374696f6e206f6620737175617265732e222c202260208201527f696d616765223a2022646174613a696d6167652f7376672b786d6c3b6261736560408201527f36342c0000000000000000000000000000000000000000000000000000000000606082015250565b7f5345434f4e445f574f5244000000000000000000000000000000000000000000600082015250565b7f4552433732313a206f70657261746f7220717565727920666f72206e6f6e657860008201527f697374656e7420746f6b656e0000000000000000000000000000000000000000602082015250565b7f4552433732313a20617070726f76652063616c6c6572206973206e6f74206f7760008201527f6e6572206e6f7220617070726f76656420666f7220616c6c0000000000000000602082015250565b7f4552433732313a2062616c616e636520717565727920666f7220746865207a6560008201527f726f206164647265737300000000000000000000000000000000000000000000602082015250565b7f4552433732313a206f776e657220717565727920666f72206e6f6e657869737460008201527f656e7420746f6b656e0000000000000000000000000000000000000000000000602082015250565b7f45524337323155524953746f726167653a2055524920736574206f66206e6f6e60008201527f6578697374656e7420746f6b656e000000000000000000000000000000000000602082015250565b7f45786365656473206d617820737570706c790000000000000000000000000000600082015250565b7f227d000000000000000000000000000000000000000000000000000000000000600082015250565b7f4552433732313a206d696e7420746f20746865207a65726f2061646472657373600082015250565b7f45524337323155524953746f726167653a2055524920717565727920666f722060008201527f6e6f6e6578697374656e7420746f6b656e000000000000000000000000000000602082015250565b7f4552433732313a20617070726f76656420717565727920666f72206e6f6e657860008201527f697374656e7420746f6b656e0000000000000000000000000000000000000000602082015250565b7f4f776e61626c653a2063616c6c6572206973206e6f7420746865206f776e6572600082015250565b7f4552433732314d657461646174613a2055524920717565727920666f72206e6f60008201527f6e6578697374656e7420746f6b656e0000000000000000000000000000000000602082015250565b7f7b226e616d65223a202200000000000000000000000000000000000000000000600082015250565b7f4552433732313a20617070726f76616c20746f2063757272656e74206f776e6560008201527f7200000000000000000000000000000000000000000000000000000000000000602082015250565b7f46495253545f574f524400000000000000000000000000000000000000000000600082015250565b7f646174613a6170706c69636174696f6e2f6a736f6e3b6261736536342c000000600082015250565b7f4552433732313a207472616e736665722063616c6c6572206973206e6f74206f60008201527f776e6572206e6f7220617070726f766564000000000000000000000000000000602082015250565b7f3c2f746578743e3c7465787420783d273530252720793d273730252720636c6160008201527f73733d27626173652720646f6d696e616e742d626173656c696e653d276d696460208201527f646c652720746578742d616e63686f723d276d6964646c65273e000000000000604082015250565b7fe586863c2f746578743e3c2f7376673e00000000000000000000000000000000600082015250565b7f4d696e74696e6720666565206f6620302e303120657468657200000000000000600082015250565b61452781613b47565b811461453257600080fd5b50565b61453e81613b59565b811461454957600080fd5b50565b61455581613b65565b811461456057600080fd5b50565b61456c81613bb1565b811461457757600080fd5b5056fe416e204e465420772f20494420257320686173206265656e206d696e74656420746f2025734142434445464748494a4b4c4d4e4f505152535455565758595a6162636465666768696a6b6c6d6e6f707172737475767778797a303132333435363738392b2fa26469706673582212207609c407efbbebcb00d9a52a3ef04b6b1340a7022ce4d67c437b873a8b79aaa464736f6c634300080400333c73766720786d6c6e733d27687474703a2f2f7777772e77332e6f72672f323030302f73766727207072657365727665417370656374526174696f3d27784d696e594d696e206d656574272076696577426f783d273020302033353020333530273e3c7374796c653e2e62617365207b2066696c6c3a2077686974653b20666f6e742d66616d696c793a2073657269663b20666f6e742d73697a653a20323470783b207d3c2f7374796c653e3c726563742077696474683d273130302527206865696768743d2731303025272066696c6c3d272346303833303027202f3e3c7465787420783d273530252720793d273530252720636c6173733d27626173652720646f6d696e616e742d626173656c696e653d276d6964646c652720746578742d616e63686f723d276d6964646c65273e",
  "linkReferences": {},
  "deployedLinkReferences": {}
}