{
  "_format": "hh-sol-artifact-1",
  "contractName": "MyEpicNFT",
  "sourceName": "contracts/MyEpicNFT.sol",
  "abi": [
    {
      "inputs": [],
      "stateMutability": "nonpayable",
      "type": "constructor"
    },
    {
      "anonymous": false,
      "inputs": [
        {
          "indexed": true,
          "internalType": "address",
          "name": "owner",
          "type": "address"
        },
        {
          "indexed": true,
          "internalType": "address",
          "name": "approved",
          "type": "address"
        },
        {
          "indexed": true,
          "internalType": "uint256",
          "name": "tokenId",
          "type": "uint256"
        }
      ],
      "name": "Approval",
      "type": "event"
    },
    {
      "anonymous": false,
      "inputs": [
        {
          "indexed": true,
          "internalType": "address",
          "name": "owner",
          "type": "address"
        },
        {
          "indexed": true,
          "internalType": "address",
          "name": "operator",
          "type": "address"
        },
        {
          "indexed": false,
          "internalType": "bool",
          "name": "approved",
          "type": "bool"
        }
      ],
      "name": "ApprovalForAll",
      "type": "event"
    },
    {
      "anonymous": false,
      "inputs": [
        {
          "indexed": false,
          "internalType": "address",
          "name": "sender",
          "type": "address"
        },
        {
          "indexed": false,
          "internalType": "uint256",
          "name": "tokenId",
          "type": "uint256"
        }
      ],
      "name": "NewEpicNFTMinted",
      "type": "event"
    },
    {
      "anonymous": false,
      "inputs": [
        {
          "indexed": true,
          "internalType": "address",
          "name": "from",
          "type": "address"
        },
        {
          "indexed": true,
          "internalType": "address",
          "name": "to",
          "type": "address"
        },
        {
          "indexed": true,
          "internalType": "uint256",
          "name": "tokenId",
          "type": "uint256"
        }
      ],
      "name": "Transfer",
      "type": "event"
    },
    {
      "inputs": [],
      "name": "MAX_SUPPLY",
      "outputs": [
        {
          "internalType": "uint256",
          "name": "",
          "type": "uint256"
        }
      ],
      "stateMutability": "view",
      "type": "function"
    },
    {
      "inputs": [
        {
          "internalType": "address",
          "name": "to",
          "type": "address"
        },
        {
          "internalType": "uint256",
          "name": "tokenId",
          "type": "uint256"
        }
      ],
      "name": "approve",
      "outputs": [],
      "stateMutability": "nonpayable",
      "type": "function"
    },
    {
      "inputs": [
        {
          "internalType": "address",
          "name": "owner",
          "type": "address"
        }
      ],
      "name": "balanceOf",
      "outputs": [
        {
          "internalType": "uint256",
          "name": "",
          "type": "uint256"
        }
      ],
      "stateMutability": "view",
      "type": "function"
    },
    {
      "inputs": [
        {
          "internalType": "uint256",
          "name": "tokenId",
          "type": "uint256"
        }
      ],
      "name": "getApproved",
      "outputs": [
        {
          "internalType": "address",
          "name": "",
          "type": "address"
        }
      ],
      "stateMutability": "view",
      "type": "function"
    },
    {
      "inputs": [
        {
          "internalType": "address",
          "name": "owner",
          "type": "address"
        },
        {
          "internalType": "address",
          "name": "operator",
          "type": "address"
        }
      ],
      "name": "isApprovedForAll",
      "outputs": [
        {
          "internalType": "bool",
          "name": "",
          "type": "bool"
        }
      ],
      "stateMutability": "view",
      "type": "function"
    },
    {
      "inputs": [],
      "name": "makeAnEpicNFT",
      "outputs": [],
      "stateMutability": "nonpayable",
      "type": "function"
    },
    {
      "inputs": [],
      "name": "name",
      "outputs": [
        {
          "internalType": "string",
          "name": "",
          "type": "string"
        }
      ],
      "stateMutability": "view",
      "type": "function"
    },
    {
      "inputs": [
        {
          "internalType": "uint256",
          "name": "tokenId",
          "type": "uint256"
        }
      ],
      "name": "ownerOf",
      "outputs": [
        {
          "internalType": "address",
          "name": "",
          "type": "address"
        }
      ],
      "stateMutability": "view",
      "type": "function"
    },
    {
      "inputs": [
        {
          "internalType": "uint256",
          "name": "tokenId",
          "type": "uint256"
        }
      ],
      "name": "pickRandomFirstWord",
      "outputs": [
        {
          "internalType": "string",
          "name": "",
          "type": "string"
        }
      ],
      "stateMutability": "view",
      "type": "function"
    },
    {
      "inputs": [
        {
          "internalType": "uint256",
          "name": "tokenId",
          "type": "uint256"
        }
      ],
      "name": "pickRandomSecondWord",
      "outputs": [
        {
          "internalType": "string",
          "name": "",
          "type": "string"
        }
      ],
      "stateMutability": "view",
      "type": "function"
    },
    {
      "inputs": [
        {
          "internalType": "uint256",
          "name": "tokenId",
          "type": "uint256"
        }
      ],
      "name": "pickRandomThirdWord",
      "outputs": [
        {
          "internalType": "string",
          "name": "",
          "type": "string"
        }
      ],
      "stateMutability": "view",
      "type": "function"
    },
    {
      "inputs": [
        {
          "internalType": "address",
          "name": "from",
          "type": "address"
        },
        {
          "internalType": "address",
          "name": "to",
          "type": "address"
        },
        {
          "internalType": "uint256",
          "name": "tokenId",
          "type": "uint256"
        }
      ],
      "name": "safeTransferFrom",
      "outputs": [],
      "stateMutability": "nonpayable",
      "type": "function"
    },
    {
      "inputs": [
        {
          "internalType": "address",
          "name": "from",
          "type": "address"
        },
        {
          "internalType": "address",
          "name": "to",
          "type": "address"
        },
        {
          "internalType": "uint256",
          "name": "tokenId",
          "type": "uint256"
        },
        {
          "internalType": "bytes",
          "name": "_data",
          "type": "bytes"
        }
      ],
      "name": "safeTransferFrom",
      "outputs": [],
      "stateMutability": "nonpayable",
      "type": "function"
    },
    {
      "inputs": [
        {
          "internalType": "address",
          "name": "operator",
          "type": "address"
        },
        {
          "internalType": "bool",
          "name": "approved",
          "type": "bool"
        }
      ],
      "name": "setApprovalForAll",
      "outputs": [],
      "stateMutability": "nonpayable",
      "type": "function"
    },
    {
      "inputs": [
        {
          "internalType": "bytes4",
          "name": "interfaceId",
          "type": "bytes4"
        }
      ],
      "name": "supportsInterface",
      "outputs": [
        {
          "internalType": "bool",
          "name": "",
          "type": "bool"
        }
      ],
      "stateMutability": "view",
      "type": "function"
    },
    {
      "inputs": [],
      "name": "symbol",
      "outputs": [
        {
          "internalType": "string",
          "name": "",
          "type": "string"
        }
      ],
      "stateMutability": "view",
      "type": "function"
    },
    {
      "inputs": [
        {
          "internalType": "uint256",
          "name": "tokenId",
          "type": "uint256"
        }
      ],
      "name": "tokenURI",
      "outputs": [
        {
          "internalType": "string",
          "name": "",
          "type": "string"
        }
      ],
      "stateMutability": "view",
      "type": "function"
    },
    {
      "inputs": [],
      "name": "totalSupply",
      "outputs": [
        {
          "internalType": "uint256",
          "name": "",
          "type": "uint256"
        }
      ],
      "stateMutability": "view",
      "type": "function"
    },
    {
      "inputs": [
        {
          "internalType": "address",
          "name": "from",
          "type": "address"
        },
        {
          "internalType": "address",
          "name": "to",
          "type": "address"
        },
        {
          "internalType": "uint256",
          "name": "tokenId",
          "type": "uint256"
        }
      ],
      "name": "transferFrom",
      "outputs": [],
      "stateMutability": "nonpayable",
      "type": "function"
    }
  ],
  "bytecode": "0x608060405260405180610160016040528061012f81526020016200463361012f913960099080519060200190620000389291906200067e565b506040518060c001604052806040518060400160405280600681526020017fe7899be4b8bc000000000000000000000000000000000000000000000000000081525081526020016040518060400160405280600681526020017fe8b19ae4b8bc000000000000000000000000000000000000000000000000000081525081526020016040518060400160405280600f81526020017fe7899be382abe383abe38393e4b8bc000000000000000000000000000000000081525081526020016040518060400160405280600c81526020017fe382abe383ace383bce7899b000000000000000000000000000000000000000081525081526020016040518060400160405280600f81526020017fe382b9e382bfe3839fe3838ae4b8bc000000000000000000000000000000000081525081526020016040518060400160405280600f81526020017fe7949fe5a79ce784bce3818de4b8bc0000000000000000000000000000000000815250815250600a906006620001b69291906200070f565b506040518060c001604052806040518060400160405280600981526020017fefbc88e4b8a6efbc89000000000000000000000000000000000000000000000081525081526020016040518060400160405280600f81526020017fefbc88e5a4a7e79b9be3828aefbc89000000000000000000000000000000000081525081526020016040518060400160405280601b81526020017fefbc88e382a2e382bfe3839ee381aee5a4a7e79b9be3828aefbc89000000000081525081526020016040518060400160405280600c81526020017fefbc88e789b9e79b9befbc89000000000000000000000000000000000000000081525081526020016040518060400160405280600f81526020017fefbc88e8b685e789b9e79b9befbc89000000000000000000000000000000000081525081526020016040518060400160405280601581526020017fefbc88e38194e9a3afe5b091e381aae38281efbc890000000000000000000000815250815250600b906006620003349291906200070f565b506040518060c001604052806040518060400160405280600c81526020017fe381a4e38286e381a0e3818f000000000000000000000000000000000000000081525081526020016040518060400160405280600c81526020017fe381a4e38286e68a9ce3818d000000000000000000000000000000000000000081525081526020016040518060400160405280600c81526020017fe381ade3818ee381a0e3818f000000000000000000000000000000000000000081525081526020016040518060400160405280600681526020017fe88289e4b88b000000000000000000000000000000000000000000000000000081525081526020016040518060400160405280600981526020017fe588a5e79b9be3828a000000000000000000000000000000000000000000000081525081526020016040518060400160405280600c81526020017fe381ade3818ee68a9ce3818d0000000000000000000000000000000000000000815250815250600c906006620004b29291906200070f565b50348015620004c057600080fd5b506040518060400160405280600981526020017f477975646f6e4e465400000000000000000000000000000000000000000000008152506040518060400160405280600481526020017f42454546000000000000000000000000000000000000000000000000000000008152508160009080519060200190620005459291906200067e565b5080600190805190602001906200055e9291906200067e565b505050620005ac6040518060400160405280601881526020017f54686973206973206d79204e465420636f6e74726163742e0000000000000000815250620005b260201b620012831760201c565b62000930565b6200065281604051602401620005c9919062000844565b6040516020818303038152906040527f41304fac000000000000000000000000000000000000000000000000000000007bffffffffffffffffffffffffffffffffffffffffffffffffffffffff19166020820180517bffffffffffffffffffffffffffffffffffffffffffffffffffffffff83818316178352505050506200065560201b60201c565b50565b60008151905060006a636f6e736f6c652e6c6f679050602083016000808483855afa5050505050565b8280546200068c90620008ba565b90600052602060002090601f016020900481019282620006b05760008555620006fc565b82601f10620006cb57805160ff1916838001178555620006fc565b82800160010185558215620006fc579182015b82811115620006fb578251825591602001919060010190620006de565b5b5090506200070b919062000776565b5090565b82805482825590600052602060002090810192821562000763579160200282015b8281111562000762578251829080519060200190620007519291906200067e565b509160200191906001019062000730565b5b50905062000772919062000795565b5090565b5b808211156200079157600081600090555060010162000777565b5090565b5b80821115620007b95760008181620007af9190620007bd565b5060010162000796565b5090565b508054620007cb90620008ba565b6000825580601f10620007df575062000800565b601f016020900490600052602060002090810190620007ff919062000776565b5b50565b6000620008108262000868565b6200081c818562000873565b93506200082e81856020860162000884565b62000839816200091f565b840191505092915050565b6000602082019050818103600083015262000860818462000803565b905092915050565b600081519050919050565b600082825260208201905092915050565b60005b83811015620008a457808201518184015260208101905062000887565b83811115620008b4576000848401525b50505050565b60006002820490506001821680620008d357607f821691505b60208210811415620008ea57620008e9620008f0565b5b50919050565b7f4e487b7100000000000000000000000000000000000000000000000000000000600052602260045260246000fd5b6000601f19601f8301169050919050565b613cf380620009406000396000f3fe608060405234801561001057600080fd5b50600436106101215760003560e01c80636352211e116100ad578063b88d4fde11610071578063b88d4fde1461032e578063c575757a1461034a578063c87b56dd1461037a578063de9d132f146103aa578063e985e9c5146103b457610121565b80636352211e1461026457806370a082311461029457806395d89b41146102c4578063a22cb465146102e2578063b187301f146102fe57610121565b806318160ddd116100f457806318160ddd146101c057806323b872dd146101de5780632de38d68146101fa57806332cb6b0c1461022a57806342842e0e1461024857610121565b806301ffc9a71461012657806306fdde0314610156578063081812fc14610174578063095ea7b3146101a4575b600080fd5b610140600480360381019061013b919061274b565b6103e4565b60405161014d9190612e92565b60405180910390f35b61015e6104c6565b60405161016b9190612ead565b60405180910390f35b61018e6004803603810190610189919061279d565b610558565b60405161019b9190612e02565b60405180910390f35b6101be60048036038101906101b9919061270f565b6105dd565b005b6101c86106f5565b6040516101d5919061315d565b60405180910390f35b6101f860048036038101906101f39190612609565b610706565b005b610214600480360381019061020f919061279d565b610766565b6040516102219190612ead565b60405180910390f35b610232610902565b60405161023f919061315d565b60405180910390f35b610262600480360381019061025d9190612609565b610908565b005b61027e6004803603810190610279919061279d565b610928565b60405161028b9190612e02565b60405180910390f35b6102ae60048036038101906102a991906125a4565b6109da565b6040516102bb919061315d565b60405180910390f35b6102cc610a92565b6040516102d99190612ead565b60405180910390f35b6102fc60048036038101906102f791906126d3565b610b24565b005b6103186004803603810190610313919061279d565b610b3a565b6040516103259190612ead565b60405180910390f35b61034860048036038101906103439190612658565b610c58565b005b610364600480360381019061035f919061279d565b610cba565b6040516103719190612ead565b60405180910390f35b610394600480360381019061038f919061279d565b610dd8565b6040516103a19190612ead565b60405180910390f35b6103b2610f2a565b005b6103ce60048036038101906103c991906125cd565b6111ef565b6040516103db9190612e92565b60405180910390f35b60007f80ac58cd000000000000000000000000000000000000000000000000000000007bffffffffffffffffffffffffffffffffffffffffffffffffffffffff1916827bffffffffffffffffffffffffffffffffffffffffffffffffffffffff191614806104af57507f5b5e139f000000000000000000000000000000000000000000000000000000007bffffffffffffffffffffffffffffffffffffffffffffffffffffffff1916827bffffffffffffffffffffffffffffffffffffffffffffffffffffffff1916145b806104bf57506104be8261131c565b5b9050919050565b6060600080546104d5906133f1565b80601f0160208091040260200160405190810160405280929190818152602001828054610501906133f1565b801561054e5780601f106105235761010080835404028352916020019161054e565b820191906000526020600020905b81548152906001019060200180831161053157829003601f168201915b5050505050905090565b600061056382611386565b6105a2576040517f08c379a0000000000000000000000000000000000000000000000000000000008152600401610599906130dd565b60405180910390fd5b6004600083815260200190815260200160002060009054906101000a900473ffffffffffffffffffffffffffffffffffffffff169050919050565b60006105e882610928565b90508073ffffffffffffffffffffffffffffffffffffffff168373ffffffffffffffffffffffffffffffffffffffff161415610659576040517f08c379a00000000000000000000000000000000000000000000000000000000081526004016106509061311d565b60405180910390fd5b8073ffffffffffffffffffffffffffffffffffffffff166106786113f2565b73ffffffffffffffffffffffffffffffffffffffff1614806106a757506106a6816106a16113f2565b6111ef565b5b6106e6576040517f08c379a00000000000000000000000000000000000000000000000000000000081526004016106dd90612ffd565b60405180910390fd5b6106f083836113fa565b505050565b600061070160086114b3565b905090565b6107176107116113f2565b826114c1565b610756576040517f08c379a000000000000000000000000000000000000000000000000000000000815260040161074d9061313d565b60405180910390fd5b61076183838361159f565b505050565b6060600061079a61077684611806565b6040516020016107869190612dbe565b6040516020818303038152906040526119b3565b90506107db6040518060400160405280600d81526020017f72616e64202d20736565643a2000000000000000000000000000000000000000815250826119e6565b600a80549050816107ec919061349d565b905061082d6040518060400160405280601381526020017f72616e64202d20666972737420776f72643a2000000000000000000000000000815250826119e6565b600a8181548110610867577f4e487b7100000000000000000000000000000000000000000000000000000000600052603260045260246000fd5b90600052602060002001805461087c906133f1565b80601f01602080910402602001604051908101604052809291908181526020018280546108a8906133f1565b80156108f55780601f106108ca576101008083540402835291602001916108f5565b820191906000526020600020905b8154815290600101906020018083116108d857829003601f168201915b5050505050915050919050565b6103e881565b61092383838360405180602001604052806000815250610c58565b505050565b6000806002600084815260200190815260200160002060009054906101000a900473ffffffffffffffffffffffffffffffffffffffff169050600073ffffffffffffffffffffffffffffffffffffffff168173ffffffffffffffffffffffffffffffffffffffff1614156109d1576040517f08c379a00000000000000000000000000000000000000000000000000000000081526004016109c89061303d565b60405180910390fd5b80915050919050565b60008073ffffffffffffffffffffffffffffffffffffffff168273ffffffffffffffffffffffffffffffffffffffff161415610a4b576040517f08c379a0000000000000000000000000000000000000000000000000000000008152600401610a429061301d565b60405180910390fd5b600360008373ffffffffffffffffffffffffffffffffffffffff1673ffffffffffffffffffffffffffffffffffffffff168152602001908152602001600020549050919050565b606060018054610aa1906133f1565b80601f0160208091040260200160405190810160405280929190818152602001828054610acd906133f1565b8015610b1a5780601f10610aef57610100808354040283529160200191610b1a565b820191906000526020600020905b815481529060010190602001808311610afd57829003601f168201915b5050505050905090565b610b36610b2f6113f2565b8383611a82565b5050565b60606000610b6e610b4a84611806565b604051602001610b5a9190612d57565b6040516020818303038152906040526119b3565b9050600b8054905081610b81919061349d565b9050600b8181548110610bbd577f4e487b7100000000000000000000000000000000000000000000000000000000600052603260045260246000fd5b906000526020600020018054610bd2906133f1565b80601f0160208091040260200160405190810160405280929190818152602001828054610bfe906133f1565b8015610c4b5780601f10610c2057610100808354040283529160200191610c4b565b820191906000526020600020905b815481529060010190602001808311610c2e57829003601f168201915b5050505050915050919050565b610c69610c636113f2565b836114c1565b610ca8576040517f08c379a0000000000000000000000000000000000000000000000000000000008152600401610c9f9061313d565b60405180910390fd5b610cb484848484611bef565b50505050565b60606000610cee610cca84611806565b604051602001610cda9190612d35565b6040516020818303038152906040526119b3565b9050600c8054905081610d01919061349d565b9050600c8181548110610d3d577f4e487b7100000000000000000000000000000000000000000000000000000000600052603260045260246000fd5b906000526020600020018054610d52906133f1565b80601f0160208091040260200160405190810160405280929190818152602001828054610d7e906133f1565b8015610dcb5780601f10610da057610100808354040283529160200191610dcb565b820191906000526020600020905b815481529060010190602001808311610dae57829003601f168201915b5050505050915050919050565b6060610de382611386565b610e22576040517f08c379a0000000000000000000000000000000000000000000000000000000008152600401610e19906130bd565b60405180910390fd5b6000600660008481526020019081526020016000208054610e42906133f1565b80601f0160208091040260200160405190810160405280929190818152602001828054610e6e906133f1565b8015610ebb5780601f10610e9057610100808354040283529160200191610ebb565b820191906000526020600020905b815481529060010190602001808311610e9e57829003601f168201915b505050505090506000610ecc611c4b565b9050600081511415610ee2578192505050610f25565b600082511115610f17578082604051602001610eff929190612c97565b60405160208183030381529060405292505050610f25565b610f2084611c62565b925050505b919050565b6103e8610f356106f5565b10610f75576040517f08c379a0000000000000000000000000000000000000000000000000000000008152600401610f6c9061307d565b60405180910390fd5b6000610f8160076114b3565b90506000610f8e82610766565b90506000610f9b83610b3a565b90506000610fa884610cba565b90506000838383604051602001610fc193929190612cbb565b604051602081830303815290604052905060006009858585604051602001610fec9493929190612cec565b604051602081830303815290604052905061103b6040518060400160405280601581526020017f0a2d2d2d2d2d205356472064617461202d2d2d2d2d0000000000000000000000815250611283565b61104481611283565b6110826040518060400160405280601581526020017f2d2d2d2d2d2d2d2d2d2d2d2d2d2d2d2d2d2d2d2d0a0000000000000000000000815250611283565b60006110b68361109184611d09565b6040516020016110a2929190612d79565b604051602081830303815290604052611d09565b90506000816040516020016110cb9190612de0565b604051602081830303815290604052905061111a6040518060400160405280601581526020017f0a2d2d2d2d2d20546f6b656e20555249202d2d2d2d0000000000000000000000815250611283565b61112381611283565b6111616040518060400160405280601581526020017f2d2d2d2d2d2d2d2d2d2d2d2d2d2d2d2d2d2d2d2d0a0000000000000000000000815250611283565b61116b3389611ec7565b6111758882611ee5565b611198604051806060016040528060258152602001613c59602591398933611f59565b6111a26007611ff8565b6111ac6008611ff8565b7febb98688741ffa4c7589bf325de30cf7becb63de567842e1ccdb6cb949fdc82c33896040516111dd929190612e69565b60405180910390a15050505050505050565b6000600560008473ffffffffffffffffffffffffffffffffffffffff1673ffffffffffffffffffffffffffffffffffffffff16815260200190815260200160002060008373ffffffffffffffffffffffffffffffffffffffff1673ffffffffffffffffffffffffffffffffffffffff16815260200190815260200160002060009054906101000a900460ff16905092915050565b611319816040516024016112979190612ead565b6040516020818303038152906040527f41304fac000000000000000000000000000000000000000000000000000000007bffffffffffffffffffffffffffffffffffffffffffffffffffffffff19166020820180517bffffffffffffffffffffffffffffffffffffffffffffffffffffffff838183161783525050505061200e565b50565b60007f01ffc9a7000000000000000000000000000000000000000000000000000000007bffffffffffffffffffffffffffffffffffffffffffffffffffffffff1916827bffffffffffffffffffffffffffffffffffffffffffffffffffffffff1916149050919050565b60008073ffffffffffffffffffffffffffffffffffffffff166002600084815260200190815260200160002060009054906101000a900473ffffffffffffffffffffffffffffffffffffffff1673ffffffffffffffffffffffffffffffffffffffff1614159050919050565b600033905090565b816004600083815260200190815260200160002060006101000a81548173ffffffffffffffffffffffffffffffffffffffff021916908373ffffffffffffffffffffffffffffffffffffffff160217905550808273ffffffffffffffffffffffffffffffffffffffff1661146d83610928565b73ffffffffffffffffffffffffffffffffffffffff167f8c5be1e5ebec7d5bd14f71427d1e84f3dd0314c0f7b2291e5b200ac8c7c3b92560405160405180910390a45050565b600081600001549050919050565b60006114cc82611386565b61150b576040517f08c379a000000000000000000000000000000000000000000000000000000000815260040161150290612fdd565b60405180910390fd5b600061151683610928565b90508073ffffffffffffffffffffffffffffffffffffffff168473ffffffffffffffffffffffffffffffffffffffff16148061158557508373ffffffffffffffffffffffffffffffffffffffff1661156d84610558565b73ffffffffffffffffffffffffffffffffffffffff16145b80611596575061159581856111ef565b5b91505092915050565b8273ffffffffffffffffffffffffffffffffffffffff166115bf82610928565b73ffffffffffffffffffffffffffffffffffffffff1614611615576040517f08c379a000000000000000000000000000000000000000000000000000000000815260040161160c90612f5d565b60405180910390fd5b600073ffffffffffffffffffffffffffffffffffffffff168273ffffffffffffffffffffffffffffffffffffffff161415611685576040517f08c379a000000000000000000000000000000000000000000000000000000000815260040161167c90612f9d565b60405180910390fd5b611690838383612037565b61169b6000826113fa565b6001600360008573ffffffffffffffffffffffffffffffffffffffff1673ffffffffffffffffffffffffffffffffffffffff16815260200190815260200160002060008282546116eb9190613307565b925050819055506001600360008473ffffffffffffffffffffffffffffffffffffffff1673ffffffffffffffffffffffffffffffffffffffff16815260200190815260200160002060008282546117429190613226565b92505081905550816002600083815260200190815260200160002060006101000a81548173ffffffffffffffffffffffffffffffffffffffff021916908373ffffffffffffffffffffffffffffffffffffffff160217905550808273ffffffffffffffffffffffffffffffffffffffff168473ffffffffffffffffffffffffffffffffffffffff167fddf252ad1be2c89b69c2b068fc378daa952ba7f163c4a11628f55a4df523b3ef60405160405180910390a461180183838361203c565b505050565b6060600082141561184e576040518060400160405280600181526020017f300000000000000000000000000000000000000000000000000000000000000081525090506119ae565b600082905060005b6000821461188057808061186990613454565b915050600a82611879919061327c565b9150611856565b60008167ffffffffffffffff8111156118c2577f4e487b7100000000000000000000000000000000000000000000000000000000600052604160045260246000fd5b6040519080825280601f01601f1916602001820160405280156118f45781602001600182028036833780820191505090505b5090505b600085146119a75760018261190d9190613307565b9150600a8561191c919061349d565b60306119289190613226565b60f81b818381518110611964577f4e487b7100000000000000000000000000000000000000000000000000000000600052603260045260246000fd5b60200101907effffffffffffffffffffffffffffffffffffffffffffffffffffffffffffff1916908160001a905350600a856119a0919061327c565b94506118f8565b8093505050505b919050565b6000816040516020016119c69190612c80565b6040516020818303038152906040528051906020012060001c9050919050565b611a7e82826040516024016119fc929190612ecf565b6040516020818303038152906040527f9710a9d0000000000000000000000000000000000000000000000000000000007bffffffffffffffffffffffffffffffffffffffffffffffffffffffff19166020820180517bffffffffffffffffffffffffffffffffffffffffffffffffffffffff838183161783525050505061200e565b5050565b8173ffffffffffffffffffffffffffffffffffffffff168373ffffffffffffffffffffffffffffffffffffffff161415611af1576040517f08c379a0000000000000000000000000000000000000000000000000000000008152600401611ae890612fbd565b60405180910390fd5b80600560008573ffffffffffffffffffffffffffffffffffffffff1673ffffffffffffffffffffffffffffffffffffffff16815260200190815260200160002060008473ffffffffffffffffffffffffffffffffffffffff1673ffffffffffffffffffffffffffffffffffffffff16815260200190815260200160002060006101000a81548160ff0219169083151502179055508173ffffffffffffffffffffffffffffffffffffffff168373ffffffffffffffffffffffffffffffffffffffff167f17307eab39ab6107e8899845ad3d59bd9653f200f220920489ca2b5937696c3183604051611be29190612e92565b60405180910390a3505050565b611bfa84848461159f565b611c0684848484612041565b611c45576040517f08c379a0000000000000000000000000000000000000000000000000000000008152600401611c3c90612f3d565b60405180910390fd5b50505050565b606060405180602001604052806000815250905090565b6060611c6d82611386565b611cac576040517f08c379a0000000000000000000000000000000000000000000000000000000008152600401611ca3906130fd565b60405180910390fd5b6000611cb6611c4b565b90506000815111611cd65760405180602001604052806000815250611d01565b80611ce084611806565b604051602001611cf1929190612c97565b6040516020818303038152906040525b915050919050565b60606000825190506000811415611d325760405180602001604052806000815250915050611ec2565b60006003600283611d439190613226565b611d4d919061327c565b6004611d5991906132ad565b90506000602082611d6a9190613226565b67ffffffffffffffff811115611da9577f4e487b7100000000000000000000000000000000000000000000000000000000600052604160045260246000fd5b6040519080825280601f01601f191660200182016040528015611ddb5781602001600182028036833780820191505090505b5090506000604051806060016040528060408152602001613c7e604091399050600181016020830160005b86811015611e7f5760038101905062ffffff818a015116603f8160121c168401518060081b905060ff603f83600c1c1686015116810190508060081b905060ff603f8360061c1686015116810190508060081b905060ff603f831686015116810190508060e01b90508084526004840193505050611e06565b506003860660018114611e995760028114611ea957611eb4565b613d3d60f01b6002830352611eb4565b603d60f81b60018303525b508484525050819450505050505b919050565b611ee18282604051806020016040528060008152506121d8565b5050565b611eee82611386565b611f2d576040517f08c379a0000000000000000000000000000000000000000000000000000000008152600401611f249061305d565b60405180910390fd5b80600660008481526020019081526020016000209080519060200190611f54929190612430565b505050565b611ff3838383604051602401611f7193929190612eff565b6040516020818303038152906040527fe3849f79000000000000000000000000000000000000000000000000000000007bffffffffffffffffffffffffffffffffffffffffffffffffffffffff19166020820180517bffffffffffffffffffffffffffffffffffffffffffffffffffffffff838183161783525050505061200e565b505050565b6001816000016000828254019250508190555050565b60008151905060006a636f6e736f6c652e6c6f679050602083016000808483855afa5050505050565b505050565b505050565b60006120628473ffffffffffffffffffffffffffffffffffffffff16612233565b156121cb578373ffffffffffffffffffffffffffffffffffffffff1663150b7a0261208b6113f2565b8786866040518563ffffffff1660e01b81526004016120ad9493929190612e1d565b602060405180830381600087803b1580156120c757600080fd5b505af19250505080156120f857506040513d601f19601f820116820180604052508101906120f59190612774565b60015b61217b573d8060008114612128576040519150601f19603f3d011682016040523d82523d6000602084013e61212d565b606091505b50600081511415612173576040517f08c379a000000000000000000000000000000000000000000000000000000000815260040161216a90612f3d565b60405180910390fd5b805181602001fd5b63150b7a0260e01b7bffffffffffffffffffffffffffffffffffffffffffffffffffffffff1916817bffffffffffffffffffffffffffffffffffffffffffffffffffffffff1916149150506121d0565b600190505b949350505050565b6121e28383612256565b6121ef6000848484612041565b61222e576040517f08c379a000000000000000000000000000000000000000000000000000000000815260040161222590612f3d565b60405180910390fd5b505050565b6000808273ffffffffffffffffffffffffffffffffffffffff163b119050919050565b600073ffffffffffffffffffffffffffffffffffffffff168273ffffffffffffffffffffffffffffffffffffffff1614156122c6576040517f08c379a00000000000000000000000000000000000000000000000000000000081526004016122bd9061309d565b60405180910390fd5b6122cf81611386565b1561230f576040517f08c379a000000000000000000000000000000000000000000000000000000000815260040161230690612f7d565b60405180910390fd5b61231b60008383612037565b6001600360008473ffffffffffffffffffffffffffffffffffffffff1673ffffffffffffffffffffffffffffffffffffffff168152602001908152602001600020600082825461236b9190613226565b92505081905550816002600083815260200190815260200160002060006101000a81548173ffffffffffffffffffffffffffffffffffffffff021916908373ffffffffffffffffffffffffffffffffffffffff160217905550808273ffffffffffffffffffffffffffffffffffffffff16600073ffffffffffffffffffffffffffffffffffffffff167fddf252ad1be2c89b69c2b068fc378daa952ba7f163c4a11628f55a4df523b3ef60405160405180910390a461242c6000838361203c565b5050565b82805461243c906133f1565b90600052602060002090601f01602090048101928261245e57600085556124a5565b82601f1061247757805160ff19168380011785556124a5565b828001600101855582156124a5579182015b828111156124a4578251825591602001919060010190612489565b5b5090506124b291906124b6565b5090565b5b808211156124cf5760008160009055506001016124b7565b5090565b60006124e66124e18461319d565b613178565b9050828152602081018484840111156124fe57600080fd5b6125098482856133af565b509392505050565b60008135905061252081613bfc565b92915050565b60008135905061253581613c13565b92915050565b60008135905061254a81613c2a565b92915050565b60008151905061255f81613c2a565b92915050565b600082601f83011261257657600080fd5b81356125868482602086016124d3565b91505092915050565b60008135905061259e81613c41565b92915050565b6000602082840312156125b657600080fd5b60006125c484828501612511565b91505092915050565b600080604083850312156125e057600080fd5b60006125ee85828601612511565b92505060206125ff85828601612511565b9150509250929050565b60008060006060848603121561261e57600080fd5b600061262c86828701612511565b935050602061263d86828701612511565b925050604061264e8682870161258f565b9150509250925092565b6000806000806080858703121561266e57600080fd5b600061267c87828801612511565b945050602061268d87828801612511565b935050604061269e8782880161258f565b925050606085013567ffffffffffffffff8111156126bb57600080fd5b6126c787828801612565565b91505092959194509250565b600080604083850312156126e657600080fd5b60006126f485828601612511565b925050602061270585828601612526565b9150509250929050565b6000806040838503121561272257600080fd5b600061273085828601612511565b92505060206127418582860161258f565b9150509250929050565b60006020828403121561275d57600080fd5b600061276b8482850161253b565b91505092915050565b60006020828403121561278657600080fd5b600061279484828501612550565b91505092915050565b6000602082840312156127af57600080fd5b60006127bd8482850161258f565b91505092915050565b6127cf8161333b565b82525050565b6127de8161334d565b82525050565b60006127ef826131e3565b6127f981856131f9565b93506128098185602086016133be565b6128128161358a565b840191505092915050565b6000612828826131ee565b612832818561320a565b93506128428185602086016133be565b61284b8161358a565b840191505092915050565b6000612861826131ee565b61286b818561321b565b935061287b8185602086016133be565b80840191505092915050565b60008154612894816133f1565b61289e818661321b565b945060018216600081146128b957600181146128ca576128fd565b60ff198316865281860193506128fd565b6128d3856131ce565b60005b838110156128f5578154818901526001820191506020810190506128d6565b838801955050505b50505092915050565b600061291360328361320a565b915061291e8261359b565b604082019050919050565b600061293660258361320a565b9150612941826135ea565b604082019050919050565b6000612959601c8361320a565b915061296482613639565b602082019050919050565b600061297c600a8361321b565b915061298782613662565b600a82019050919050565b600061299f60248361320a565b91506129aa8261368b565b604082019050919050565b60006129c260198361320a565b91506129cd826136da565b602082019050919050565b60006129e560638361321b565b91506129f082613703565b606382019050919050565b6000612a08600b8361321b565b9150612a138261379e565b600b82019050919050565b6000612a2b602c8361320a565b9150612a36826137c7565b604082019050919050565b6000612a4e600d8361321b565b9150612a5982613816565b600d82019050919050565b6000612a7160388361320a565b9150612a7c8261383f565b604082019050919050565b6000612a94602a8361320a565b9150612a9f8261388e565b604082019050919050565b6000612ab760298361320a565b9150612ac2826138dd565b604082019050919050565b6000612ada602e8361320a565b9150612ae58261392c565b604082019050919050565b6000612afd60128361320a565b9150612b088261397b565b602082019050919050565b6000612b2060028361321b565b9150612b2b826139a4565b600282019050919050565b6000612b4360208361320a565b9150612b4e826139cd565b602082019050919050565b6000612b6660318361320a565b9150612b71826139f6565b604082019050919050565b6000612b89602c8361320a565b9150612b9482613a45565b604082019050919050565b6000612bac602f8361320a565b9150612bb782613a94565b604082019050919050565b6000612bcf600a8361321b565b9150612bda82613ae3565b600a82019050919050565b6000612bf260218361320a565b9150612bfd82613b0c565b604082019050919050565b6000612c15600a8361321b565b9150612c2082613b5b565b600a82019050919050565b6000612c38601d8361321b565b9150612c4382613b84565b601d82019050919050565b6000612c5b60318361320a565b9150612c6682613bad565b604082019050919050565b612c7a816133a5565b82525050565b6000612c8c8284612856565b915081905092915050565b6000612ca38285612856565b9150612caf8284612856565b91508190509392505050565b6000612cc78286612856565b9150612cd38285612856565b9150612cdf8284612856565b9150819050949350505050565b6000612cf88287612887565b9150612d048286612856565b9150612d108285612856565b9150612d1c8284612856565b9150612d2782612a41565b915081905095945050505050565b6000612d408261296f565b9150612d4c8284612856565b915081905092915050565b6000612d62826129fb565b9150612d6e8284612856565b915081905092915050565b6000612d8482612bc2565b9150612d908285612856565b9150612d9b826129d8565b9150612da78284612856565b9150612db282612b13565b91508190509392505050565b6000612dc982612c08565b9150612dd58284612856565b915081905092915050565b6000612deb82612c2b565b9150612df78284612856565b915081905092915050565b6000602082019050612e1760008301846127c6565b92915050565b6000608082019050612e3260008301876127c6565b612e3f60208301866127c6565b612e4c6040830185612c71565b8181036060830152612e5e81846127e4565b905095945050505050565b6000604082019050612e7e60008301856127c6565b612e8b6020830184612c71565b9392505050565b6000602082019050612ea760008301846127d5565b92915050565b60006020820190508181036000830152612ec7818461281d565b905092915050565b60006040820190508181036000830152612ee9818561281d565b9050612ef86020830184612c71565b9392505050565b60006060820190508181036000830152612f19818661281d565b9050612f286020830185612c71565b612f3560408301846127c6565b949350505050565b60006020820190508181036000830152612f5681612906565b9050919050565b60006020820190508181036000830152612f7681612929565b9050919050565b60006020820190508181036000830152612f968161294c565b9050919050565b60006020820190508181036000830152612fb681612992565b9050919050565b60006020820190508181036000830152612fd6816129b5565b9050919050565b60006020820190508181036000830152612ff681612a1e565b9050919050565b6000602082019050818103600083015261301681612a64565b9050919050565b6000602082019050818103600083015261303681612a87565b9050919050565b6000602082019050818103600083015261305681612aaa565b9050919050565b6000602082019050818103600083015261307681612acd565b9050919050565b6000602082019050818103600083015261309681612af0565b9050919050565b600060208201905081810360008301526130b681612b36565b9050919050565b600060208201905081810360008301526130d681612b59565b9050919050565b600060208201905081810360008301526130f681612b7c565b9050919050565b6000602082019050818103600083015261311681612b9f565b9050919050565b6000602082019050818103600083015261313681612be5565b9050919050565b6000602082019050818103600083015261315681612c4e565b9050919050565b60006020820190506131726000830184612c71565b92915050565b6000613182613193565b905061318e8282613423565b919050565b6000604051905090565b600067ffffffffffffffff8211156131b8576131b761355b565b5b6131c18261358a565b9050602081019050919050565b60008190508160005260206000209050919050565b600081519050919050565b600081519050919050565b600082825260208201905092915050565b600082825260208201905092915050565b600081905092915050565b6000613231826133a5565b915061323c836133a5565b9250827fffffffffffffffffffffffffffffffffffffffffffffffffffffffffffffffff03821115613271576132706134ce565b5b828201905092915050565b6000613287826133a5565b9150613292836133a5565b9250826132a2576132a16134fd565b5b828204905092915050565b60006132b8826133a5565b91506132c3836133a5565b9250817fffffffffffffffffffffffffffffffffffffffffffffffffffffffffffffffff04831182151516156132fc576132fb6134ce565b5b828202905092915050565b6000613312826133a5565b915061331d836133a5565b9250828210156133305761332f6134ce565b5b828203905092915050565b600061334682613385565b9050919050565b60008115159050919050565b60007fffffffff0000000000000000000000000000000000000000000000000000000082169050919050565b600073ffffffffffffffffffffffffffffffffffffffff82169050919050565b6000819050919050565b82818337600083830152505050565b60005b838110156133dc5780820151818401526020810190506133c1565b838111156133eb576000848401525b50505050565b6000600282049050600182168061340957607f821691505b6020821081141561341d5761341c61352c565b5b50919050565b61342c8261358a565b810181811067ffffffffffffffff8211171561344b5761344a61355b565b5b80604052505050565b600061345f826133a5565b91507fffffffffffffffffffffffffffffffffffffffffffffffffffffffffffffffff821415613492576134916134ce565b5b600182019050919050565b60006134a8826133a5565b91506134b3836133a5565b9250826134c3576134c26134fd565b5b828206905092915050565b7f4e487b7100000000000000000000000000000000000000000000000000000000600052601160045260246000fd5b7f4e487b7100000000000000000000000000000000000000000000000000000000600052601260045260246000fd5b7f4e487b7100000000000000000000000000000000000000000000000000000000600052602260045260246000fd5b7f4e487b7100000000000000000000000000000000000000000000000000000000600052604160045260246000fd5b6000601f19601f8301169050919050565b7f4552433732313a207472616e7366657220746f206e6f6e20455243373231526560008201527f63656976657220696d706c656d656e7465720000000000000000000000000000602082015250565b7f4552433732313a207472616e736665722066726f6d20696e636f72726563742060008201527f6f776e6572000000000000000000000000000000000000000000000000000000602082015250565b7f4552433732313a20746f6b656e20616c7265616479206d696e74656400000000600082015250565b7f54484952445f574f524400000000000000000000000000000000000000000000600082015250565b7f4552433732313a207472616e7366657220746f20746865207a65726f2061646460008201527f7265737300000000000000000000000000000000000000000000000000000000602082015250565b7f4552433732313a20617070726f766520746f2063616c6c657200000000000000600082015250565b7f222c20226465736372697074696f6e223a20224120686967686c79206163636c60008201527f61696d656420636f6c6c656374696f6e206f6620737175617265732e222c202260208201527f696d616765223a2022646174613a696d6167652f7376672b786d6c3b6261736560408201527f36342c0000000000000000000000000000000000000000000000000000000000606082015250565b7f5345434f4e445f574f5244000000000000000000000000000000000000000000600082015250565b7f4552433732313a206f70657261746f7220717565727920666f72206e6f6e657860008201527f697374656e7420746f6b656e0000000000000000000000000000000000000000602082015250565b7f3c2f746578743e3c2f7376673e00000000000000000000000000000000000000600082015250565b7f4552433732313a20617070726f76652063616c6c6572206973206e6f74206f7760008201527f6e6572206e6f7220617070726f76656420666f7220616c6c0000000000000000602082015250565b7f4552433732313a2062616c616e636520717565727920666f7220746865207a6560008201527f726f206164647265737300000000000000000000000000000000000000000000602082015250565b7f4552433732313a206f776e657220717565727920666f72206e6f6e657869737460008201527f656e7420746f6b656e0000000000000000000000000000000000000000000000602082015250565b7f45524337323155524953746f726167653a2055524920736574206f66206e6f6e60008201527f6578697374656e7420746f6b656e000000000000000000000000000000000000602082015250565b7f45786365656473206d617820737570706c790000000000000000000000000000600082015250565b7f227d000000000000000000000000000000000000000000000000000000000000600082015250565b7f4552433732313a206d696e7420746f20746865207a65726f2061646472657373600082015250565b7f45524337323155524953746f726167653a2055524920717565727920666f722060008201527f6e6f6e6578697374656e7420746f6b656e000000000000000000000000000000602082015250565b7f4552433732313a20617070726f76656420717565727920666f72206e6f6e657860008201527f697374656e7420746f6b656e0000000000000000000000000000000000000000602082015250565b7f4552433732314d657461646174613a2055524920717565727920666f72206e6f60008201527f6e6578697374656e7420746f6b656e0000000000000000000000000000000000602082015250565b7f7b226e616d65223a202200000000000000000000000000000000000000000000600082015250565b7f4552433732313a20617070726f76616c20746f2063757272656e74206f776e6560008201527f7200000000000000000000000000000000000000000000000000000000000000602082015250565b7f46495253545f574f524400000000000000000000000000000000000000000000600082015250565b7f646174613a6170706c69636174696f6e2f6a736f6e3b6261736536342c000000600082015250565b7f4552433732313a207472616e736665722063616c6c6572206973206e6f74206f60008201527f776e6572206e6f7220617070726f766564000000000000000000000000000000602082015250565b613c058161333b565b8114613c1057600080fd5b50565b613c1c8161334d565b8114613c2757600080fd5b50565b613c3381613359565b8114613c3e57600080fd5b50565b613c4a816133a5565b8114613c5557600080fd5b5056fe416e204e465420772f20494420257320686173206265656e206d696e74656420746f2025734142434445464748494a4b4c4d4e4f505152535455565758595a6162636465666768696a6b6c6d6e6f707172737475767778797a303132333435363738392b2fa2646970667358221220a963323bfbff9d294d4a76305e7f90cdb8421bf054e78afee237517290567b1464736f6c634300080400333c73766720786d6c6e733d27687474703a2f2f7777772e77332e6f72672f323030302f73766727207072657365727665417370656374526174696f3d27784d696e594d696e206d656574272076696577426f783d273020302033353020333530273e3c7374796c653e2e62617365207b2066696c6c3a2077686974653b20666f6e742d66616d696c793a2073657269663b20666f6e742d73697a653a20323470783b207d3c2f7374796c653e3c726563742077696474683d273130302527206865696768743d2731303025272066696c6c3d27626c61636b27202f3e3c7465787420783d273530252720793d273530252720636c6173733d27626173652720646f6d696e616e742d626173656c696e653d276d6964646c652720746578742d616e63686f723d276d6964646c65273e",
  "linkReferences": {},
  "deployedLinkReferences": {}
}